:400000000080002011000000E5050000E505000008B5044B1A6803F53F5302331A6000F0E9FA00BFFA46004010B5054C237833B9044B13B10448AFF300800123237010BDC0
:40004000F081FF1F00000000B81F0000084B10B51BB108480849AFF300800848036803B910BD074B002BFBD0BDE81040184700BF00000000B81F0000F481FF1F0881FF1FC3
:4000800000000000034B01221A705A6801325A60704700BF0C82FF1F08B500F00BFD08BD38B500F09BFC00F0B3FC1A4CA060002000F0A8FCA06801F05DF90022164B01F00A
:4000C000E9FA01F0CFFB0546E060144901F0C6FE30B12846124901F0DFFE08B1256106E00C4B1A69DA600F4A1368013313600020012100F013FE0C4800F0A4FD002001212F
:4001000000F00CFE034BD86801F0F6FE00F024FE38BD00BF0C82FF1F00002440000016430000F041B882FF1FBC1F000008B500F027FF08BD08B5002000F030FF012000F01A
:4001400039FF012000F042FF002000F04BFF08BD08B5002000F022FF012000F02BFF002000F034FF012000F03DFF08BD08B5012000F014FF002000F01DFF002000F026FF16
:40018000012000F02FFF08BD08B5012000F006FF002000F00FFF012000F018FF002000F021FF08BD08B5002000F050FF012000F059FF012000F062FF002000F06BFF08BDF7
:4001C00008B5002000F042FF012000F04BFF002000F054FF012000F05DFF08BD08B5012000F034FF002000F03DFF002000F046FF012000F04FFF08BD08B5012000F026FF48
:40020000002000F02FFF012000F038FF002000F041FF08BD10B5FFF7C5FF0A4C208800F0E1FDFFF7CDFF208800F0DCFDFFF7D6FF208800F0D7FDFFF7DFFF208800F0D2FD33
:4002400010BD00BF0C81FF1F10B5FFF773FF0A4C208800F0C7FDFFF77BFF208800F0C2FDFFF784FF208800F0BDFDFFF78DFF208800F0B8FD10BD00BF0C81FF1F10B5FFF715
:40028000ADFF0A4C208800F0ADFDFFF799FF208800F0A8FDFFF786FF208800F0A3FDFFF7ABFF208800F09EFD10BD00BF0C81FF1F10B5FFF75BFF0A4C208800F093FDFFF7E9
:4002C00047FF208800F08EFDFFF734FF208800F089FDFFF759FF208800F084FD10BD00BF0C81FF1F38B500F0DFFD00F0F7FD804C2060002000F0ECFD206801F03BF8002200
:400300007C4B01F0C7F901F0ADFA04467A4B18607A4901F0A3FD58B12046794901F0BCFD30B1784B1C60784A13680133136007E0744B1A68704B1A60744A136801331360B6
:40034000724B186801F094FB05466F4B186801F08FFB04462846214601F0DAFA0146204601F092FC6A4C6B4901F0DAFB20600120082100F0D3FC684800F064FC01200821AD
:4003800000F0CCFC206801F0B7FD80B200F0E4FC0120014600F0C2FC604800F053FC0120014600F0BBFC544C206801F0A5FD00F0D3FC0020082100F0B1FC594800F042FC1B
:4003C00000200A2100F0AAFC564BD868216801F09DFA01F06BFD544B1860002809DA2D2000F03EFC504B1868404280B200F0B4FC02E080B200F0B0FC4A4A536901335361E1
:4004000013F0030F72D1484B1B685A1D042A02D95A1E042A6AD8581D424CA061434B03EB8005A98819865A6B03EB8202526809B28A1AE2612062A96B6162586E03EB8003EE
:400440009B6BC91AA162002A12DA5242E2610022374B1A6005E0FFF7F7FE354A136801331360334B1A682F4BDB699A42F3DB0FE000222F4B1A6005E0FFF71AFF2C4A1368C2
:40048000013313602A4B1A68264BDB699A42F3DB244B9B6A002B10DD0022254B1A6005E0FFF7ECFE224A136801331360204B1A681C4B9B6A9A42F3DB12E05B42194A93626A
:4004C00000221B4B1A6005E0FFF7A4FE184A136801331360164B1A68124B9B6A9A42F3DB124B104A116A596692695A6338BD00BF6882FF1F00002440AC82FF1F000016439C
:4005000000005C42B082FF1F6C82FF1F4082FF1FB482FF1F0000C842C41F0000BC1F0000CC1F00000C82FF1FA882FF1F0C81FF1F9882FF1F08B562B600F0E2FB00200146FA
:4005400000F0ECFB204D0024AC85EC851F4800F06DFC1F4800F02CFA1E4800F001FA1E4800F08CFC1D4800F063FD2C701C4B1C600CE0154B1B7833B9FFF766FE184A1368CF
:400580000133136002E0FFF75FFE03E0144B1B68132BEEDD124B1B68142B14D10022104B1A600CE0084B1B7833B9FFF781FE0C4A13680133136002E0FFF77AFE03E0084B65
:4005C0001B68312BEEDDFEE70C82FF1F99000000A10000002D010000E5020000850000009882FF1F08B501F0A7FC03680C2B00D1FEE7FEE708B5104E104D16E029686B6854
:40060000AC68002204E051F8040B43F8040B0432A242F8D1E868002203E0002143F8041B04328242F9D11035013E002EE6D101F089FCFFF77FFFFEE7010000002820000006
:4006400008B5124A124B1A60124A136843F40073136000230AE0032B03D80F4A52F8231000E00E490E4A42F8231001332F2BF2D90C4B1A780C4B1A70094A0C4B1A6000F077
:40068000C3F800220A4B1A6008BD00BF0004FA050CED00E014ED00E000000000E50500000080FF1FBC7600400481FF1F08ED00E00081FF1FFEE700BFF0B40022174611E084
:4006C00050F82760F3B226F0FF0608E001EB420511F812406D78A5550132013BDBB2002BF4D10137172FEBD9F0BC7047064B1B78DBB203F00701054A11701B09013213706F
:400700004422034B1A707047CF0100496E5800407658004008B50A46002101F044FC08BD38B501222A4B1A8018232A490B7002310A80294A1370172204310A8002310B70D2
:4007400002310A80254A13700222254B1A7008224FF040231A70032103F500731970214B1B78DBB220490B70204B1A8041F25122023B1A80002419250CE01D4B1B7803F010
:40078000010343EA440404F003044FF4F07000F08FFC013D0DB1032CEFD115B90320FFF789FF144B4FF480721A8007221A70002211490A704820023108701A700222033B77
:4007C0001A700E4A137843F00F03137038BD00BF8040004082400040864000408E4000400043004008010049A146004022420040254200400440004006400040A243004084
:4008000008B501F0C5FB08BD70B572B6324A137843F00403137000240CE0304963001A1952000A4423445B00C8589188FFF772FF0134E4B2062CF0D94FF090402849FFF717
:400840003BFF284A137843F0020313701032137843F002031370244C237843F040032370A2F58632513A137843F0100313701F481F490822FFF7C4FF1E481F490822FFF71C
:40088000BFFF1E481E490822FFF7BAFF1D481E490822FFF7B5FF1D481D490822FFF7B0FF1C481D490822FFF7ABFF1C4A137843F0080313701A4E01253570FFF731FF812357
:4008C0003370184B1D70FFF711FF174821460E22FFF796FF70BD00BFE8460040D41F00006000004803500140A043004002510040CC030048C2510040D40300481251004073
:40090000DC03004822510040E403004832510040EC03004842510040F4030048224300400048004004000840B0430040014B1B685864704708ED00E04001C0B2014B187058
:40094000704700BF01E400E00222014B1A60704700E100E00222014B1A60704780E100E010B50446FFF7F6FF2046FFF7DFFF0720FFF7E2FFFFF7E8FF10BD00BF014B1B688E
:400980009864704708ED00E04001C0B2014B1870704700BF02E400E00422014B1A60704700E100E00422014B1A60704780E100E010B50446FFF7F6FF2046FFF7DFFF072049
:4009C000FFF7E2FFFFF7E8FF10BD00BF024A137843F080031370704774650040024A137803F07F031370704774650040014B1870704700BF87650040014B1878704700BF70
:400A000067650040014B1860704700BF04650040024B1B78024B1868704700BF0465004044650040014B1868704700BF44650040014B1860704700BF24650040014B186020
:400A4000704700BF3465004008B501E0FFF7EAFFFFF7D2FF10F0400FF8D108BD08B5134A137803F0F80343F003031370137803F0FC031370FFF7E8FF4FF0FF30FFF7D8FF9F
:400A80000020FFF7BFFF0020FFF7B0FFFFF7B4FF4FF0FF30FFF7D2FF00F012FB044A137843F01003137000F00FFB08BD746500409765004008B5054B1B7823B9FFF7CEFFCD
:400AC0000122024B1A70FFF781FF08BD3C82FF1F10B50B4C237803F09F032370237803F0F00323702378184340F010002070012000F078F9237803F0EF03237010BD00BF0B
:400B00002051004038B505460E4C237843F020032370237803F0BF032370002000F062F9237803F0F003237023781D4345F010052570012000F056F9237803F0EF0323703F
:400B400038BD00BF2051004070B5354B1A7802F08002D2B21A7033490A7802F0F00242F00F020A7001310A7802F0F0020A7001310A7802F0F0020A701A7802F0DF021A70A5
:400B80001A7842F040021A704FF4CA76002000F029F9234D2B7843F010032B70012000F021F9214B1C78E4B22B7803F0EF032B70002000F017F904F00804E4B22B7843F08C
:400BC00010032B70012000F00DF92B7803F0EF032B7014B90A2000F005F9013E0CB1002ED4D10F4A137803F0BF031370137803F08003DBB213700232137803F0F003137004
:400C00000132137803F0F00343F00F0313700132137803F0F00343F00F03137070BD00BF20510040225100402151004010B50446FFF78AFF2009FFF765FF04F00F00FFF7D0
:400C400061FF10BD38B505460078012404E0FFF7EDFF285D0134E4B20028F8D138BD00BF08B5FFF7E3FF08BD10B50446FFF76CFF2009FFF72DFF04F00F00FFF729FF10BDB4
:400C800008B5282000F098F80320FFF721FF052000F092F80320FFF71BFF0F2000F08CF80320FFF715FF012000F086F80220FFF70FFF052000F080F80620FFF7D5FF0E2074
:400CC000FFF7D2FF2C20FFF7CFFF0820FFF7CCFF0120FFF7C9FF0C20FFF7C6FF0320FFF7C3FF052000F068F808BD00BF08B50C20FFF7BAFF0122014B1A7008BD3D82FF1F67
:400D000008B5054B5B7823B9FFF7BAFF0122024B5A70FFF7EBFF08BD3D82FF1F08B5032819D8DFE800F002070D1381F08000FFF79BFF08BDA1F14000C0B2FFF795FF08BDFA
:400D4000A1F16C00C0B2FFF78FFF08BDA1F12C00C0B2FFF789FF08BD00B585B000238DF80E30092210E0134BA3FB0013DB08194603EB83035B00C31A303304A8104400F804
:400D80000C3C0846013AD2B20928ECD8094BA3FB0013DB0803EB83035B00C31A303304A9114401F80C3C01AB9818FFF74BFF05B05DF804FBCDCCCCCC10B5044605E0084B92
:400DC000186800F075F9A4F50044B4F5004FF6D8034B586800FB04F000F06AF910BD00BF7881FF1F08B5034B1B7A03FB00F000F05FF908BD7881FF1F014B1B6818647047CB
:400E000008ED00E04001C0B2014B1870704700BF00E400E00122014B1A60704700E100E00122014B1A60704780E100E010B50446FFF7F6FF2046FFF7DFFF0720FFF7E2FFA8
:400E4000FFF7E8FF10BD00BF014B1B68D864704708ED00E04001C0B2014B1870704700BF03E400E00822014B1A60704700E100E00822014B1A60704780E100E010B504464F
:400E8000FFF7F6FF2046FFF7DFFF0720FFF7E2FFFFF7E8FF10BD00BF024A137843F080031370704774640040024A137803F07F031370704774640040014B1870704700BFDF
:400EC00087640040014B1878704700BF67640040014B1860704700BF04640040024B1B78024B1868704700BF0464004044640040014B1868704700BF44640040014B1860E7
:400F0000704700BF24640040014B1860704700BF3464004008B501E0FFF7EAFFFFF7D2FF10F0400FF8D108BD08B5134A137803F0F80343F003031370137803F0FC031370F1
:400F4000FFF7E8FF4FF0FF30FFF7D8FF0020FFF7BFFF0020FFF7B0FFFFF7B4FF4FF0FF30FFF7D2FF00F0ACF8044A137843F01003137000F0A9F808BD746400409764004003
:400F800008B5054B1B7823B9FFF7CEFF0122024B1A70FFF781FF08BD3F82FF1F044A137803F0BF03800100F0400018431070704730510040044A137803F0FD03400000F050
:400FC000020018431070704730510040044A137803F0DF03400100F0200018431070704730510040044A137803F0FB03800000F0040018431070704730510040014B1B68EA
:401000001865704708ED00E04001C0B2014B1870704700BF04E400E01022014B1A60704700E100E01022014B1A60704780E100E010B50446FFF7F6FF2046FFF7DFFF072027
:40104000FFF7E2FFFFF7E8FF10BD00BF044A137803F0DF03400100F0200018431070704700510040044A137803F0FB03800000F0040018431070704700510040044A1378D4
:4010800003F0BF03800100F0400018431070704700510040044A137803F0FD03400000F0020018431070704700510040000000000230800803D000BF01380046FCD1704737
:4010C000EFF3108072B6704780F31088704700BF81F0004102E000BF83F0004330B54FEA41044FEA430594EA050F08BF90EA020F1FBF54EA000C55EA020C7FEA645C7FEA46
:40110000655C00F0E2804FEA5454D4EB5555B8BF6D420CDD2C4480EA020281EA030382EA000083EA010180EA020281EA0303362D88BF30BD11F0004F4FEA01314FF4801C09
:401140004CEA113102D0404261EB410113F0004F4FEA03334CEA133302D0524263EB430394EA050F00F0A780A4F10104D5F1200E0DDB02FA0EFC22FA05F2801841F10001DB
:4011800003FA0EF2801843FA05F359410EE0A5F120050EF1200E012A03FA0EFC28BF4CF0020C43FA05F3C01851EBE37101F0004507D54FF0000EDCF1000C7EEB00006EEBFB
:4011C0000101B1F5801F1BD3B1F5001F0CD349085FEA30004FEA3C0C04F101044FEA445212F5800F80F09A80BCF1004F08BF5FEA500C50F1000041EB045141EA050130BD9A
:401200005FEA4C0C404141EB010111F4801FA4F10104E9D191F0000F04BF01460020B1FA81F308BF2033A3F10B03B3F120020CDA0C3208DD02F1140CC2F10C0201FA0CF037
:4012400021FA02F10CE002F11402D8BFC2F1200C01FA02F120FA0CFCDCBF41EA0C019040E41AA2BF01EB0451294330BD6FEA04041F3C1CDA0C340EDC04F11404C4F1200289
:4012800020FA04F001FA02F340EA030021FA04F345EA030130BDC4F10C04C4F1200220FA02F001FA04F340EA0300294630BD21FA04F0294630BD94F0000F83F4801306BFE1
:4012C00081F480110134013D4EE77FEA645C18BF7FEA655C29D094EA050F08BF90EA020F05D054EA000C04BF1946104630BD91EA030F1EBF0021002030BD5FEA545C05D14E
:401300004000494128BF41F0004130BD14F580043CBF01F5801130BD01F0004545F0FE4141F470014FF0000030BD7FEA645C1ABF194610467FEA655C1CBF0B46024650EA96
:40134000013406BF52EA033591EA030F41F4002130BD00BF90F0000F04BF0021704730B54FF4806404F132044FF000054FF0000150E700BF90F0000F04BF0021704730B586
:401380004FF4806404F1320410F0004548BF40424FF000013EE700BF42004FEAE2014FEA31014FEA02701FBF12F07F4393F07F4F81F06051704792F0000F14BF93F07F4FF4
:4013C000704730B54FF4607401F0004521F0004120E700BF50EA010208BF704730B54FF000050AE050EA010208BF704730B511F0004502D5404261EB41014FF4806404F135
:4014000032045FEA915C3FF4DCAE4FF003025FEADC0C18BF03325FEADC0C18BF033202EBDC02C2F1200300FA03FC20FA02F001FA03FE40EA0E0021FA02F11444C1E600BF1F
:4014400070B54FF0FF0C4CF4E06C1CEA11541DBF1CEA135594EA0C0F95EA0C0F00F0DEF82C4481EA030621EA4C5123EA4C5350EA013518BF52EA033541F4801143F4801340
:4014800038D0A0FB02CE4FF00005E1FB02E506F00042E0FB03E54FF00006E1FB03569CF0000F18BF4EF0010EA4F1FF04B6F5007F64F5407404D25FEA4E0E6D4146EB060649
:4014C00042EAC62141EA55514FEAC52040EA5E504FEACE2EB4F1FD0C88BFBCF5E06F1ED8BEF1004F08BF5FEA500E50F1000041EB045170BD06F0004646EA010140EA0200FD
:4015000081EA0301B4EB5C04C2BFD4EB0C0541EA045170BD41F480114FF0000E013C00F3AB8014F1360FDEBF002001F0004170BDC4F10004203C35DA0C341BDC04F1140403
:40154000C4F1200500FA05F320FA04F001FA05F240EA020001F0004221F0004110EBD37021FA04F642EB06015EEA430E08BF20EAD37070BDC4F10C04C4F1200500FA04F3FD
:4015800020FA05F001FA04F240EA020001F0004110EBD37041F100015EEA430E08BF20EAD37070BDC4F1200500FA05F24EEA020E20FA04F301FA05F243EA020321FA04F02B
:4015C00001F0004121FA04F220EA020000EBD3705EEA430E08BF20EAD37070BD94F0000F0FD101F00046400041EB010111F4801F08BF013CF7D041EA060195F0000F18BF70
:40160000704703F00046520043EB030313F4801F08BF013DF7D043EA0603704794EA0C0F0CEA135518BF95EA0C0F0CD050EA410618BF52EA4306D1D181EA030101F0004171
:401640004FF0000070BD50EA410606BF1046194652EA430619D094EA0C0F02D150EA013613D195EA0C0F05D152EA03361CBF104619460AD181EA030101F0004141F0FE4173
:4016800041F470014FF0000070BD41F0FE4141F4780170BD70B54FF0FF0C4CF4E06C1CEA11541DBF1CEA135594EA0C0F95EA0C0F00F0A7F8A4EB050481EA030E52EA0335D3
:4016C0004FEA013100F088804FEA03334FF0805545EA131343EA12634FEA022245EA111545EA10654FEA00260EF000419D4208BF964244F1FD0404F5407402D25B084FEA48
:401700003202B61A65EB03055B084FEA32024FF480104FF4002CB6EB020E75EB030E22BFB61A754640EA0C005B084FEA3202B6EB020E75EB030E22BFB61A754640EA5C0093
:401740005B084FEA3202B6EB020E75EB030E22BFB61A754640EA9C005B084FEA3202B6EB020E75EB030E22BFB61A754640EADC0055EA060E18D04FEA051545EA16754FEA60
:4017800006164FEAC30343EA52734FEAC2025FEA1C1CC0D111F4801F0BD141EA00014FF000004FF0004CB6E711F4801F04BF01430020B4F1FD0C88BFBCF5E06F3FF6AFAEA8
:4017C000B5EB030C04BFB6EB020C5FEA500C50F1000041EB045170BD0EF0004E4EEA113114EB5C04C2BFD4EB0C0541EA045170BD41F480114FF0000E013C90E645EA060E08
:401800008DE60CEA135594EA0C0F08BF95EA0C0F3FF43BAF94EA0C0F0AD150EA01347FF434AF95EA0C0F7FF425AF104619462CE795EA0C0F06D152EA03353FF4FDAE1046C5
:40184000194622E750EA410618BF52EA43067FF4C5AE50EA41047FF40DAF52EA43057FF4EBAE12E74FEA4102B2F1E04324BFB3F5001CDCF1FE5C0DD901F0004C4FEAC002D8
:401880004CEA5070B2F1004F40EB830008BF20F00100704711F0804F21D113F13872BCBF01F00040704741F480114FEA5252C2F11802C2F1200C10FA0CF320FA02F018BFF5
:4018C00040F001004FEAC1234FEAD32303FA0CFC40EA0C0023FA02F34FEA4303CCE77FEA625307D150EA01331EBF4FF0FE4040F44000704701F0004040F0FE4040F4000030
:40190000704700BF80F0004002E000BF81F0004142001FBF5FEA410392EA030F7FEA226C7FEA236C6AD04FEA1262D2EB1363C1BFD218414048404140B8BF5B42192B88BF57
:40194000704710F0004F40F4000020F07F4018BF404211F0004F41F4000121F07F4118BF494292EA030F3FD0A2F1010241FA03FC10EB0C00C3F1200301FA03F100F00043DF
:4019800002D5494260EB4000B0F5000F13D3B0F1807F06D340084FEA310102F10102FE2A51D2B1F1004F40EBC25008BF20F0010040EA03007047490040EB000010F4000FC2
:4019C000A2F10102EDD1B0FA80FCACF1080CB2EB0C0200FA0CF0AABF00EBC25052421843BCBFD0401843704792F0000F81F4000106BF80F400000132013BB5E74FEA410361
:401A00007FEA226C18BF7FEA236C21D092EA030F04D092F0000F08BF0846704790EA010F1CBF0020704712F07F4F04D1400028BF40F00040704712F100723CBF00F500009C
:401A4000704700F0004343F0FE4040F4000070477FEA226216BF08467FEA23630146420206BF5FEA412390EA010F40F4800070474FF0000304E000BF10F0004348BF40427E
:401A80005FEA000C08BF704743F0964301464FF000001CE050EA010208BF70474FF000030AE000BF50EA010208BF704711F0004302D5404261EB41015FEA010C02BF844658
:401AC0000146002043F0B64308BFA3F18053A3F50003BCFA8CF2083AA3EBC25310DB01FA02FC634400FA02FCC2F12002BCF1004F20FA02F243EB020008BF20F00100704750
:401B000002F1200201FA02FCC2F1200250EA4C0021FA02F243EB020008BF20EADC7070474FF0FF0C1CEAD0521EBF1CEAD15392EA0C0F93EA0C0F6FD01A4480EA010C40022B
:401B400018BF5FEA41211ED04FF0006343EA501043EA5111A0FB01310CF00040B1F5000F3EBF490041EAD3715B0040EA010062F17F02FD2A1DD8B3F1004F40EBC25008BF57
:401B800020F00100704790F0000F0CF0004C08BF49024CEA502040EA51207F3AC2BFD2F1FF0340EAC250704740F400004FF00003013A5DDC12F1190FDCBF00F000407047AA
:401BC000C2F10002410021FA02F1C2F1200200FA02FC5FEA310040F1000053EA4C0308BF20EADC70704792F0000F00F0004C02BF400010F4000F013AF9D040EA0C0093F06B
:401C0000000F01F0004C02BF490011F4000F013BF9D041EA0C018FE70CEAD15392EA0C0F18BF93EA0C0F0AD030F0004C18BF31F0004CD8D180EA010000F00040704790F062
:401C4000000F17BF90F0004F084691F0000F91F0004F14D092EA0C0F01D142020FD193EA0C0F03D14B0218BF084608D180EA010000F0004040F0FE4040F40000704740F0B6
:401C8000FE4040F4400070474FF0FF0C1CEAD0521EBF1CEAD15392EA0C0F93EA0C0F69D0A2EB030280EA010C49024FEA402037D04FF0805343EA111143EA10130CF00040F9
:401CC0008B4238BF5B0042F17D024FF4000C8B4224BF5B1A40EA0C00B3EB510F24BFA3EB510340EA5C00B3EB910F24BFA3EB910340EA9C00B3EBD10F24BFA3EBD10340EA2A
:401D0000DC001B0118BF5FEA1C1CE0D1FD2A3FF650AF8B4240EBC25008BF20F0010070470CF0004C4CEA50207F32C2BFD2F1FF0340EAC250704740F400004FF00003013A25
:401D400037E792F0000F00F0004C02BF400010F4000F013AF9D040EA0C0093F0000F01F0004C02BF490011F4000F013BF9D041EA0C0195E70CEAD15392EA0C0F08D14202B6
:401D80007FF47DAF93EA0C0F7FF470AF084676E793EA0C0F04D14B023FF44CAF08466EE730F0004C18BF31F0004CCAD130F000427FF45CAF31F000437FF43CAF5FE700BF32
:401DC0004FF0FF3C06E000BF4FF0010C02E000BF4FF0010C4DF804CD4FEA40024FEA41037FEA226C18BF7FEA236C11D001B052EA530C18BF90EA010F58BFB2EB030088BF2B
:401E0000C81738BF6FEAE17018BF40F0010070477FEA226C02D15FEA402C05D17FEA236CE4D15FEA412CE1D05DF8040B704700BF844608466146FFE70FB5FFF7C9FF0028D1
:401E400048BF10F1000F0FBD4DF808EDFFF7F4FF0CBF012000205DF808FB00BF4DF808EDFFF7EAFF34BF012000205DF808FB00BF4DF808EDFFF7E0FF94BF012000205DF8DD
:401E800008FB00BF4DF808EDFFF7D2FF94BF012000205DF808FB00BF4DF808EDFFF7C8FF34BF012000205DF808FB00BF4FEA4002B2F1FE4F0FD34FF09E03B3EB12620DD94D
:401EC0004FEA002343F0004310F0004F23FA02F018BF404270474FF00000704712F1610F01D1420205D110F0004008BF6FF0004070474FF00000704742000ED2B2F1FE4FE8
:401F00000BD34FF09E03B3EB126209D44FEA002343F0004323FA02F070474FF00000704712F1610F01D1420202D14FF0FF3070474FF00000704700BF014B1868704700BFEE
:401F4000E881FF1F0E4B70B51E460E4C0025E41AA410A54204D056F8253098470135F8E700F050F8084B094C1E46E41AA4100025A54204D056F8253098470135F8E770BDDB
:401F80001020000010200000102000001820000010B5431E0A44914204D011F8014B03F8014FF8E710BD03460244934202D003F8011BFAE77047000000000000202020208D
:401FC000000000002020202020202000443A202020200000505100402000F0510040100000000140001000140140000800400140000A004C014000020050014020000000F8
:4020000043000000F8B500BFF8BC08BC9E4670474D00000041060000F8B500BFF8BC08BC9E46704729000000382000000881FF1FE8000000D000000000000000204E00007D
:40204000F6FFFFFFF8FFFFFFFAFFFFFFFCFFFFFFFEFFFFFF00000000020000000400000006000000080000000A0000000A0000000500000005000000040000000300000054
:402080000200000001000000000000000100000002000000030000000400000005000000050000000A0000000000E02EC05D00001800000000366E01000000000000000017
:4020C00000000000000000000000000000000000000000000000000000200000000000000000000000000000000000000000000000000000000000000000000000000000C0
:402100000000000000000000000000000000000000000000000000008881FF1F00000000000000000000000000000000000000000000000000000000000000000000000078
:40214000000000000000000000000000000000000000000000000000000000000000000000000000000000000000000000000000000000000000000000000000000000005F
:40218000000000000000000000000000000000000000000000000000000000000000000000000000000000000000000000000000000000000000000000000000000000001F
:4021C00000000000000000000000000000000000000000000000000000000000000000000000000000000000000000000000000000000000000000000000000000000000DF
:40220000000000000000000000000000000000000000000000000000000000000000000000000000000000000000000000000000000000000000000000000000000000009E
:020000040003F7
:0200000480007A
:40000000016400400165004002030140430401401F0501404106014023070140010B0140010D01403E140140231501403B1601401A1701400640014007410140054201400B
:4000400001430140034401400345014004460140034801400D4901400450014002510140876787678720EA020001060309010E0C19021C082E013002310132013302340800
:4000800036043E143F054034410649FF4AFF4BFF4DA04F0150185280580459045A045B045C015D115F016040628064406540668068406A506BA86C406D206E506FA8C0319D
:4000C000C106C9FFCAFFCBFFCDAFCE07CF01D018DA04DD01DF01E040E280E440E540E680E840EA50EBA8EC40ED20EE50EFA8010A02010A01100219021A15210223203020DA
:400100003A10410142104304460147044A084E087002802086108D029F20C00DC201C401CC04CE04D053D224E203E6104031410649FF4AFF4BFF4DAF4E074F0150185A0485
:400140005D015F016040628064406540668068406A506BA86C406D206E506FA88C01A003A403B002B601B908BE40BF04C034C106C545C6C2C70EC83FC9FFCAFFCBFFCDAFCB
:40018000CE07CF01D018D407D804D904DA04DB04DC01DD11DF01E040E280E440E540E680E840EA50EBA8EC40ED20EE50EFA8004010A01840194021042208410142104601B7
:4001C000470448A04A084E08510952115380582059405A046108621080208380921495029B049D089E01A608C001C40CD053D224D60ED806E203EA020C01120114081E033F
:400200002E0C30023204340836013E504015410349FF4AFF4BFF4DA04F015018528058045A045B045F016040628064406540668068406A506BA86C406D206E506FA88901F9
:40024000B301BF04C051C103C9FFCAFFCBFFCDAFCE07CF01D018D904DA04DF01E040E280E440E540E680E840EA50EBA8EC40ED20EE50EFA80040088009020A1010021841A7
:400280001A141B4027203D20400141044220462148024F8071028118872091089401960498809A019D089E20A002A740A880C001C20DC401CE20D05AD2184051410349FFF3
:4002C0004AFF4BFF4DAF4E074F0150185A045F016040628064406540668068406A506BA86C406D206E506FA88801A003A403B202B601BE40C015C103C545C6C2C70EC83F2D
:40030000C9FFCAFFCBFFCDAFCE07CF01D018D407D804DA04DB04DF01E040E280E440E540E680E840EA50EBA8EC40ED20EE50EFA8001010A01810194040014104462148A2B9
:400340004F8050025148521159405A14610862108140821091089D08C002C40CD05AD218D60ED8063020320237243A10CCF0CE1086029E109F24A602AC20E240EA40872062
:400380008F049E109F24E2409E1012101705C40C9A109B04AF01830486109A109B0427409E10C88000011B208001832086109E10AB40C010C640E080E240E420EC80000246
:4003C0000A0210011A0100FF0103000000666600000000003000000000000000000B0B0000000000007F7F00000000000166660000000000002020000000000000000000A5
:4004000000000000000000000000000000000000000000000000000000000000000000000000000000000000000000000000000000000000000000000000000000000000BC
:40044000000000000000000000000000000000000000000000000000000000000000000000000000000000000000000000000000000000000000000000000000000000007C
:40048000000000000000000000000000000000000000000000000000000000000000000000000000000000000000000000000000000000000000000000000000000000003C
:4004C00000000000000000000000000000000000000000000000000000000000000000000000000000000000000000000000000000000000000000000000000000000000FC
:0200000490006A
:0400000000004005B7
:0200000490105A
:04000000BC90ACAF55
:0200000490303A
:020000005F6E31
:0200000490402A
:4000000000000000000000000000000000000000000000000000000000000000000000000000000000000000000000000000000000000000000000000000000000000000C0
:400040000000000000000000000000000000000000000000000000000000000000000000000000000000000000000000000000000000000000000000000000000000000080
:400080000000000000000000000000000000000000000000000000000000000000000000000000000000000000000000000000000000000000000000000000000000000040
:4000C0000000000000000000000000000000000000000000000000000000000000000000000000000000000000000000000000000000000000000000000000000000000000
:0200000490501A
:0C00000000012E12306900012E208FD765
:00000001FF